{
  "_format": "hh-sol-artifact-1",
  "contractName": "DesToken",
  "sourceName": "contracts/DesToken.sol",
  "abi": [
    {
      "inputs": [],
      "stateMutability": "nonpayable",
      "type": "constructor"
    },
    {
      "inputs": [],
      "name": "DesToken__NotOwner",
      "type": "error"
    },
    {
      "inputs": [
        {
          "internalType": "address",
          "name": "spender",
          "type": "address"
        },
        {
          "internalType": "uint256",
          "name": "allowance",
          "type": "uint256"
        },
        {
          "internalType": "uint256",
          "name": "needed",
          "type": "uint256"
        }
      ],
      "name": "ERC20InsufficientAllowance",
      "type": "error"
    },
    {
      "inputs": [
        {
          "internalType": "address",
          "name": "sender",
          "type": "address"
        },
        {
          "internalType": "uint256",
          "name": "balance",
          "type": "uint256"
        },
        {
          "internalType": "uint256",
          "name": "needed",
          "type": "uint256"
        }
      ],
      "name": "ERC20InsufficientBalance",
      "type": "error"
    },
    {
      "inputs": [
        {
          "internalType": "address",
          "name": "approver",
          "type": "address"
        }
      ],
      "name": "ERC20InvalidApprover",
      "type": "error"
    },
    {
      "inputs": [
        {
          "internalType": "address",
          "name": "receiver",
          "type": "address"
        }
      ],
      "name": "ERC20InvalidReceiver",
      "type": "error"
    },
    {
      "inputs": [
        {
          "internalType": "address",
          "name": "sender",
          "type": "address"
        }
      ],
      "name": "ERC20InvalidSender",
      "type": "error"
    },
    {
      "inputs": [
        {
          "internalType": "address",
          "name": "spender",
          "type": "address"
        }
      ],
      "name": "ERC20InvalidSpender",
      "type": "error"
    },
    {
      "anonymous": false,
      "inputs": [
        {
          "indexed": true,
          "internalType": "address",
          "name": "owner",
          "type": "address"
        },
        {
          "indexed": true,
          "internalType": "address",
          "name": "spender",
          "type": "address"
        },
        {
          "indexed": false,
          "internalType": "uint256",
          "name": "value",
          "type": "uint256"
        }
      ],
      "name": "Approval",
      "type": "event"
    },
    {
      "anonymous": false,
      "inputs": [
        {
          "indexed": true,
          "internalType": "address",
          "name": "from",
          "type": "address"
        },
        {
          "indexed": true,
          "internalType": "address",
          "name": "to",
          "type": "address"
        },
        {
          "indexed": false,
          "internalType": "uint256",
          "name": "value",
          "type": "uint256"
        }
      ],
      "name": "Transfer",
      "type": "event"
    },
    {
      "inputs": [
        {
          "internalType": "address",
          "name": "owner",
          "type": "address"
        },
        {
          "internalType": "address",
          "name": "spender",
          "type": "address"
        }
      ],
      "name": "allowance",
      "outputs": [
        {
          "internalType": "uint256",
          "name": "",
          "type": "uint256"
        }
      ],
      "stateMutability": "view",
      "type": "function"
    },
    {
      "inputs": [
        {
          "internalType": "address",
          "name": "spender",
          "type": "address"
        },
        {
          "internalType": "uint256",
          "name": "value",
          "type": "uint256"
        }
      ],
      "name": "approve",
      "outputs": [
        {
          "internalType": "bool",
          "name": "",
          "type": "bool"
        }
      ],
      "stateMutability": "nonpayable",
      "type": "function"
    },
    {
      "inputs": [
        {
          "internalType": "address",
          "name": "account",
          "type": "address"
        }
      ],
      "name": "balanceOf",
      "outputs": [
        {
          "internalType": "uint256",
          "name": "",
          "type": "uint256"
        }
      ],
      "stateMutability": "view",
      "type": "function"
    },
    {
      "inputs": [],
      "name": "decimals",
      "outputs": [
        {
          "internalType": "uint8",
          "name": "",
          "type": "uint8"
        }
      ],
      "stateMutability": "view",
      "type": "function"
    },
    {
      "inputs": [
        {
          "internalType": "address",
          "name": "account",
          "type": "address"
        }
      ],
      "name": "getBalance",
      "outputs": [
        {
          "internalType": "uint256",
          "name": "",
          "type": "uint256"
        }
      ],
      "stateMutability": "view",
      "type": "function"
    },
    {
      "inputs": [
        {
          "internalType": "address",
          "name": "to",
          "type": "address"
        },
        {
          "internalType": "uint256",
          "name": "amount",
          "type": "uint256"
        }
      ],
      "name": "mint",
      "outputs": [],
      "stateMutability": "nonpayable",
      "type": "function"
    },
    {
      "inputs": [],
      "name": "name",
      "outputs": [
        {
          "internalType": "string",
          "name": "",
          "type": "string"
        }
      ],
      "stateMutability": "view",
      "type": "function"
    },
    {
      "inputs": [
        {
          "internalType": "address",
          "name": "to",
          "type": "address"
        },
        {
          "internalType": "uint256",
          "name": "amount",
          "type": "uint256"
        }
      ],
      "name": "sendToken",
      "outputs": [],
      "stateMutability": "nonpayable",
      "type": "function"
    },
    {
      "inputs": [],
      "name": "symbol",
      "outputs": [
        {
          "internalType": "string",
          "name": "",
          "type": "string"
        }
      ],
      "stateMutability": "view",
      "type": "function"
    },
    {
      "inputs": [
        {
          "internalType": "address",
          "name": "to",
          "type": "address"
        },
        {
          "internalType": "uint256",
          "name": "amount",
          "type": "uint256"
        }
      ],
      "name": "tokenTransfer",
      "outputs": [],
      "stateMutability": "nonpayable",
      "type": "function"
    },
    {
      "inputs": [],
      "name": "totalSupply",
      "outputs": [
        {
          "internalType": "uint256",
          "name": "",
          "type": "uint256"
        }
      ],
      "stateMutability": "view",
      "type": "function"
    },
    {
      "inputs": [
        {
          "internalType": "address",
          "name": "to",
          "type": "address"
        },
        {
          "internalType": "uint256",
          "name": "value",
          "type": "uint256"
        }
      ],
      "name": "transfer",
      "outputs": [
        {
          "internalType": "bool",
          "name": "",
          "type": "bool"
        }
      ],
      "stateMutability": "nonpayable",
      "type": "function"
    },
    {
      "inputs": [
        {
          "internalType": "address",
          "name": "from",
          "type": "address"
        },
        {
          "internalType": "address",
          "name": "to",
          "type": "address"
        },
        {
          "internalType": "uint256",
          "name": "value",
          "type": "uint256"
        }
      ],
      "name": "transferFrom",
      "outputs": [
        {
          "internalType": "bool",
          "name": "",
          "type": "bool"
        }
      ],
      "stateMutability": "nonpayable",
      "type": "function"
    }
  ],
  "bytecode": "0x60a06040523480156200001157600080fd5b50604051806040016040528060088152602001672232b9aa37b5b2b760c11b81525060405180604001604052806003815260200162222a2760e91b8152508160039081620000609190620002b4565b5060046200006f8282620002b4565b5050506200008e3369d3c21bcecceda10000006200009860201b60201c565b33608052620003a8565b6001600160a01b038216620000c85760405163ec442f0560e01b8152600060048201526024015b60405180910390fd5b620000d660008383620000da565b5050565b6001600160a01b03831662000109578060026000828254620000fd919062000380565b909155506200017d9050565b6001600160a01b038316600090815260208190526040902054818110156200015e5760405163391434e360e21b81526001600160a01b03851660048201526024810182905260448101839052606401620000bf565b6001600160a01b03841660009081526020819052604090209082900390555b6001600160a01b0382166200019b57600280548290039055620001ba565b6001600160a01b03821660009081526020819052604090208054820190555b816001600160a01b0316836001600160a01b03167fddf252ad1be2c89b69c2b068fc378daa952ba7f163c4a11628f55a4df523b3ef836040516200020091815260200190565b60405180910390a3505050565b634e487b7160e01b600052604160045260246000fd5b600181811c908216806200023857607f821691505b6020821081036200025957634e487b7160e01b600052602260045260246000fd5b50919050565b601f821115620002af576000816000526020600020601f850160051c810160208610156200028a5750805b601f850160051c820191505b81811015620002ab5782815560010162000296565b5050505b505050565b81516001600160401b03811115620002d057620002d06200020d565b620002e881620002e1845462000223565b846200025f565b602080601f831160018114620003205760008415620003075750858301515b600019600386901b1c1916600185901b178555620002ab565b600085815260208120601f198616915b82811015620003515788860151825594840194600190910190840162000330565b5085821015620003705787850151600019600388901b60f8161c191681555b5050505050600190811b01905550565b80820180821115620003a257634e487b7160e01b600052601160045260246000fd5b92915050565b608051610995620003d2600039600081816102ef015281816103b6015261045001526109956000f3fe608060405234801561001057600080fd5b50600436106100cf5760003560e01c8063412664ae1161008c57806395d89b411161006657806395d89b41146101ad578063a9059cbb146101b5578063dd62ed3e146101c8578063f8b2cb4f1461020157600080fd5b8063412664ae1461015e57806368cdafe61461017157806370a082311461018457600080fd5b806306fdde03146100d4578063095ea7b3146100f257806318160ddd1461011557806323b872dd14610127578063313ce5671461013a57806340c10f1914610149575b600080fd5b6100dc610214565b6040516100e991906107de565b60405180910390f35b610105610100366004610849565b6102a6565b60405190151581526020016100e9565b6002545b6040519081526020016100e9565b610105610135366004610873565b6102c0565b604051601281526020016100e9565b61015c610157366004610849565b6102e4565b005b61015c61016c366004610849565b61033b565b61015c61017f366004610849565b6103ab565b6101196101923660046108af565b6001600160a01b031660009081526020819052604090205490565b6100dc61047f565b6101056101c3366004610849565b61048e565b6101196101d63660046108d1565b6001600160a01b03918216600090815260016020908152604080832093909416825291909152205490565b61011961020f3660046108af565b61049c565b60606003805461022390610904565b80601f016020809104026020016040519081016040528092919081815260200182805461024f90610904565b801561029c5780601f106102715761010080835404028352916020019161029c565b820191906000526020600020905b81548152906001019060200180831161027f57829003601f168201915b5050505050905090565b6000336102b48185856104ba565b60019150505b92915050565b6000336102ce8582856104cc565b6102d985858561054a565b506001949350505050565b336001600160a01b037f0000000000000000000000000000000000000000000000000000000000000000161461032d57604051637f9ddc4960e01b815260040160405180910390fd5b61033782826105a9565b5050565b6002600554036103925760405162461bcd60e51b815260206004820152601f60248201527f5265656e7472616e637947756172643a207265656e7472616e742063616c6c0060448201526064015b60405180910390fd5b60026005556103a1828261048e565b5050600160055550565b336001600160a01b037f000000000000000000000000000000000000000000000000000000000000000016146103f457604051637f9ddc4960e01b815260040160405180910390fd5b6002600554036104465760405162461bcd60e51b815260206004820152601f60248201527f5265656e7472616e637947756172643a207265656e7472616e742063616c6c006044820152606401610389565b60026005556104767f0000000000000000000000000000000000000000000000000000000000000000838361054a565b50506001600555565b60606004805461022390610904565b6000336102b481858561054a565b6001600160a01b0381166000908152602081905260408120546102ba565b6104c783838360016105df565b505050565b6001600160a01b038381166000908152600160209081526040808320938616835292905220546000198114610544578181101561053557604051637dc7a0d960e11b81526001600160a01b03841660048201526024810182905260448101839052606401610389565b610544848484840360006105df565b50505050565b6001600160a01b03831661057457604051634b637e8f60e11b815260006004820152602401610389565b6001600160a01b03821661059e5760405163ec442f0560e01b815260006004820152602401610389565b6104c78383836106b4565b6001600160a01b0382166105d35760405163ec442f0560e01b815260006004820152602401610389565b610337600083836106b4565b6001600160a01b0384166106095760405163e602df0560e01b815260006004820152602401610389565b6001600160a01b03831661063357604051634a1406b160e11b815260006004820152602401610389565b6001600160a01b038085166000908152600160209081526040808320938716835292905220829055801561054457826001600160a01b0316846001600160a01b03167f8c5be1e5ebec7d5bd14f71427d1e84f3dd0314c0f7b2291e5b200ac8c7c3b925846040516106a691815260200190565b60405180910390a350505050565b6001600160a01b0383166106df5780600260008282546106d4919061093e565b909155506107519050565b6001600160a01b038316600090815260208190526040902054818110156107325760405163391434e360e21b81526001600160a01b03851660048201526024810182905260448101839052606401610389565b6001600160a01b03841660009081526020819052604090209082900390555b6001600160a01b03821661076d5760028054829003905561078c565b6001600160a01b03821660009081526020819052604090208054820190555b816001600160a01b0316836001600160a01b03167fddf252ad1be2c89b69c2b068fc378daa952ba7f163c4a11628f55a4df523b3ef836040516107d191815260200190565b60405180910390a3505050565b60006020808352835180602085015260005b8181101561080c578581018301518582016040015282016107f0565b506000604082860101526040601f19601f8301168501019250505092915050565b80356001600160a01b038116811461084457600080fd5b919050565b6000806040838503121561085c57600080fd5b6108658361082d565b946020939093013593505050565b60008060006060848603121561088857600080fd5b6108918461082d565b925061089f6020850161082d565b9150604084013590509250925092565b6000602082840312156108c157600080fd5b6108ca8261082d565b9392505050565b600080604083850312156108e457600080fd5b6108ed8361082d565b91506108fb6020840161082d565b90509250929050565b600181811c9082168061091857607f821691505b60208210810361093857634e487b7160e01b600052602260045260246000fd5b50919050565b808201808211156102ba57634e487b7160e01b600052601160045260246000fdfea264697066735822122074160cae757be411cecd6c0becb29ee344ce6e55acfc596d4e05de498897a35264736f6c63430008180033",
  "linkReferences": {},
  "deployedLinkReferences": {},
  "address": "0x5FbDB2315678afecb367f032d93F642f64180aa3"
}